{
	"Return.sol": {
		"Return": {
			"abi": [
				{
					"inputs": [],
					"name": "readReturn",
					"outputs": [],
					"stateMutability": "pure",
					"type": "function"
				},
				{
					"inputs": [],
					"name": "returnMultiple",
					"outputs": [
						{
							"internalType": "uint256",
							"name": "",
							"type": "uint256"
						},
						{
							"internalType": "bool",
							"name": "",
							"type": "bool"
						},
						{
							"internalType": "uint256[3]",
							"name": "",
							"type": "uint256[3]"
						}
					],
					"stateMutability": "pure",
					"type": "function"
				},
				{
					"inputs": [],
					"name": "returnNamed",
					"outputs": [
						{
							"internalType": "uint256",
							"name": "_number",
							"type": "uint256"
						},
						{
							"internalType": "bool",
							"name": "_bool",
							"type": "bool"
						},
						{
							"internalType": "uint256[3]",
							"name": "_array",
							"type": "uint256[3]"
						}
					],
					"stateMutability": "pure",
					"type": "function"
				},
				{
					"inputs": [],
					"name": "returnNamed2",
					"outputs": [
						{
							"internalType": "uint256",
							"name": "_number",
							"type": "uint256"
						},
						{
							"internalType": "bool",
							"name": "_bool",
							"type": "bool"
						},
						{
							"internalType": "uint256[3]",
							"name": "_array",
							"type": "uint256[3]"
						}
					],
					"stateMutability": "pure",
					"type": "function"
				}
			],
			"devdoc": {
				"kind": "dev",
				"methods": {},
				"version": 1
			},
			"evm": {
				"assembly": "    /* \"Return.sol\":58:765  contract Return{... */\n  mstore(0x40, 0x80)\n  callvalue\n  dup1\n  iszero\n  tag_1\n  jumpi\n  0x00\n  dup1\n  revert\ntag_1:\n  pop\n  dataSize(sub_0)\n  dup1\n  dataOffset(sub_0)\n  0x00\n  codecopy\n  0x00\n  return\nstop\n\nsub_0: assembly {\n        /* \"Return.sol\":58:765  contract Return{... */\n      mstore(0x40, 0x80)\n      callvalue\n      dup1\n      iszero\n      tag_1\n      jumpi\n      0x00\n      dup1\n      revert\n    tag_1:\n      pop\n      jumpi(tag_2, lt(calldatasize, 0x04))\n      shr(0xe0, calldataload(0x00))\n      dup1\n      0x3dece511\n      eq\n      tag_3\n      jumpi\n      dup1\n      0x6f590330\n      eq\n      tag_4\n      jumpi\n      dup1\n      0x8552dc08\n      eq\n      tag_5\n      jumpi\n      dup1\n      0xe61e4008\n      eq\n      tag_6\n      jumpi\n    tag_2:\n      0x00\n      dup1\n      revert\n        /* \"Return.sol\":209:383  function returnNamed() public pure returns(uint256 _number,bool _bool,uint256[3] memory _array){... */\n    tag_3:\n      tag_7\n      tag_8\n      jump\t// in\n    tag_7:\n      mload(0x40)\n      tag_9\n      swap4\n      swap3\n      swap2\n      swap1\n      tag_10\n      jump\t// in\n    tag_9:\n      mload(0x40)\n      dup1\n      swap2\n      sub\n      swap1\n      return\n        /* \"Return.sol\":541:753  function readReturn() public pure{... */\n    tag_4:\n      tag_11\n      tag_12\n      jump\t// in\n    tag_11:\n      stop\n        /* \"Return.sol\":389:536  function returnNamed2() public pure returns(uint256 _number,bool _bool,uint256[3] memory _array ){... */\n    tag_5:\n      tag_13\n      tag_14\n      jump\t// in\n    tag_13:\n      mload(0x40)\n      tag_15\n      swap4\n      swap3\n      swap2\n      swap1\n      tag_10\n      jump\t// in\n    tag_15:\n      mload(0x40)\n      dup1\n      swap2\n      sub\n      swap1\n      return\n        /* \"Return.sol\":80:203  function returnMultiple() public pure returns(uint256,bool,uint256[3] memory){... */\n    tag_6:\n      tag_16\n      tag_17\n      jump\t// in\n    tag_16:\n      mload(0x40)\n      tag_18\n      swap4\n      swap3\n      swap2\n      swap1\n      tag_10\n      jump\t// in\n    tag_18:\n      mload(0x40)\n      dup1\n      swap2\n      sub\n      swap1\n      return\n        /* \"Return.sol\":209:383  function returnNamed() public pure returns(uint256 _number,bool _bool,uint256[3] memory _array){... */\n    tag_8:\n        /* \"Return.sol\":252:267  uint256 _number */\n      0x00\n        /* \"Return.sol\":268:278  bool _bool */\n      dup1\n        /* \"Return.sol\":279:303  uint256[3] memory _array */\n      tag_19\n      tag_20\n      jump\t// in\n    tag_19:\n        /* \"Return.sol\":322:323  2 */\n      0x02\n        /* \"Return.sol\":314:323  _number=2 */\n      swap3\n      pop\n        /* \"Return.sol\":339:344  false */\n      0x00\n        /* \"Return.sol\":333:344  _bool=false */\n      swap2\n      pop\n        /* \"Return.sol\":354:377  _array=[uint256(3),2,1] */\n      mload(0x40)\n      dup1\n      0x60\n      add\n      0x40\n      mstore\n      dup1\n        /* \"Return.sol\":370:371  3 */\n      0x03\n        /* \"Return.sol\":354:377  _array=[uint256(3),2,1] */\n      dup2\n      mstore\n      0x20\n      add\n        /* \"Return.sol\":373:374  2 */\n      0x02\n        /* \"Return.sol\":354:377  _array=[uint256(3),2,1] */\n      dup2\n      mstore\n      0x20\n      add\n        /* \"Return.sol\":375:376  1 */\n      0x01\n        /* \"Return.sol\":354:377  _array=[uint256(3),2,1] */\n      dup2\n      mstore\n      pop\n      swap1\n      pop\n        /* \"Return.sol\":209:383  function returnNamed() public pure returns(uint256 _number,bool _bool,uint256[3] memory _array){... */\n      swap1\n      swap2\n      swap3\n      jump\t// out\n        /* \"Return.sol\":541:753  function readReturn() public pure{... */\n    tag_12:\n        /* \"Return.sol\":582:597  uint256 _number */\n      0x00\n        /* \"Return.sol\":605:615  bool _bool */\n      dup1\n        /* \"Return.sol\":623:635  bool _bool12 */\n      0x00\n        /* \"Return.sol\":643:667  uint256[3] memory _array */\n      tag_23\n      tag_20\n      jump\t// in\n    tag_23:\n        /* \"Return.sol\":699:712  returnNamed() */\n      tag_24\n        /* \"Return.sol\":699:710  returnNamed */\n      tag_8\n        /* \"Return.sol\":699:712  returnNamed() */\n      jump\t// in\n    tag_24:\n        /* \"Return.sol\":675:712  (_number,_bool,_array) =returnNamed() */\n      dup1\n      swap4\n      pop\n      dup2\n      swap6\n      pop\n      dup3\n      swap7\n      pop\n      pop\n      pop\n      pop\n        /* \"Return.sol\":732:745  returnNamed() */\n      tag_25\n        /* \"Return.sol\":732:743  returnNamed */\n      tag_8\n        /* \"Return.sol\":732:745  returnNamed() */\n      jump\t// in\n    tag_25:\n        /* \"Return.sol\":720:745  (,_bool12,)=returnNamed() */\n      swap1\n      swap2\n      pop\n      pop\n      dup1\n      swap3\n      pop\n      pop\n        /* \"Return.sol\":574:753  {... */\n      pop\n      pop\n      pop\n      pop\n        /* \"Return.sol\":541:753  function readReturn() public pure{... */\n      jump\t// out\n        /* \"Return.sol\":389:536  function returnNamed2() public pure returns(uint256 _number,bool _bool,uint256[3] memory _array ){... */\n    tag_14:\n        /* \"Return.sol\":433:448  uint256 _number */\n      0x00\n        /* \"Return.sol\":449:459  bool _bool */\n      dup1\n        /* \"Return.sol\":460:484  uint256[3] memory _array */\n      tag_26\n      tag_20\n      jump\t// in\n    tag_26:\n        /* \"Return.sol\":506:507  1 */\n      0x01\n        /* \"Return.sol\":508:512  true */\n      dup1\n        /* \"Return.sol\":498:530  return (1,true,[uint256(1),2,5]) */\n      mload(0x40)\n      dup1\n      0x60\n      add\n      0x40\n      mstore\n      dup1\n        /* \"Return.sol\":522:523  1 */\n      0x01\n        /* \"Return.sol\":498:530  return (1,true,[uint256(1),2,5]) */\n      dup2\n      mstore\n      0x20\n      add\n        /* \"Return.sol\":525:526  2 */\n      0x02\n        /* \"Return.sol\":498:530  return (1,true,[uint256(1),2,5]) */\n      dup2\n      mstore\n      0x20\n      add\n        /* \"Return.sol\":527:528  5 */\n      0x05\n        /* \"Return.sol\":498:530  return (1,true,[uint256(1),2,5]) */\n      dup2\n      mstore\n      pop\n      swap3\n      pop\n      swap3\n      pop\n      swap3\n      pop\n        /* \"Return.sol\":389:536  function returnNamed2() public pure returns(uint256 _number,bool _bool,uint256[3] memory _array ){... */\n      swap1\n      swap2\n      swap3\n      jump\t// out\n        /* \"Return.sol\":80:203  function returnMultiple() public pure returns(uint256,bool,uint256[3] memory){... */\n    tag_17:\n        /* \"Return.sol\":126:133  uint256 */\n      0x00\n        /* \"Return.sol\":134:138  bool */\n      dup1\n        /* \"Return.sol\":139:156  uint256[3] memory */\n      tag_28\n      tag_20\n      jump\t// in\n    tag_28:\n        /* \"Return.sol\":173:174  1 */\n      0x01\n        /* \"Return.sol\":175:179  true */\n      dup1\n        /* \"Return.sol\":165:197  return (1,true,[uint256(1),2,5]) */\n      mload(0x40)\n      dup1\n      0x60\n      add\n      0x40\n      mstore\n      dup1\n        /* \"Return.sol\":189:190  1 */\n      0x01\n        /* \"Return.sol\":165:197  return (1,true,[uint256(1),2,5]) */\n      dup2\n      mstore\n      0x20\n      add\n        /* \"Return.sol\":192:193  2 */\n      0x02\n        /* \"Return.sol\":165:197  return (1,true,[uint256(1),2,5]) */\n      dup2\n      mstore\n      0x20\n      add\n        /* \"Return.sol\":194:195  5 */\n      0x05\n        /* \"Return.sol\":165:197  return (1,true,[uint256(1),2,5]) */\n      dup2\n      mstore\n      pop\n      swap3\n      pop\n      swap3\n      pop\n      swap3\n      pop\n        /* \"Return.sol\":80:203  function returnMultiple() public pure returns(uint256,bool,uint256[3] memory){... */\n      swap1\n      swap2\n      swap3\n      jump\t// out\n    tag_20:\n      mload(0x40)\n      dup1\n      0x60\n      add\n      0x40\n      mstore\n      dup1\n      0x03\n      swap1\n      0x20\n      dup3\n      mul\n      dup1\n      calldatasize\n      dup4\n      calldatacopy\n      dup1\n      dup3\n      add\n      swap2\n      pop\n      pop\n      swap1\n      pop\n      pop\n      swap1\n      jump\t// out\n        /* \"#utility.yul\":7:84   */\n    tag_30:\n        /* \"#utility.yul\":44:51   */\n      0x00\n        /* \"#utility.yul\":73:78   */\n      dup2\n        /* \"#utility.yul\":62:78   */\n      swap1\n      pop\n        /* \"#utility.yul\":7:84   */\n      swap2\n      swap1\n      pop\n      jump\t// out\n        /* \"#utility.yul\":90:208   */\n    tag_31:\n        /* \"#utility.yul\":177:201   */\n      tag_44\n        /* \"#utility.yul\":195:200   */\n      dup2\n        /* \"#utility.yul\":177:201   */\n      tag_30\n      jump\t// in\n    tag_44:\n        /* \"#utility.yul\":172:175   */\n      dup3\n        /* \"#utility.yul\":165:202   */\n      mstore\n        /* \"#utility.yul\":90:208   */\n      pop\n      pop\n      jump\t// out\n        /* \"#utility.yul\":214:304   */\n    tag_32:\n        /* \"#utility.yul\":248:255   */\n      0x00\n        /* \"#utility.yul\":291:296   */\n      dup2\n        /* \"#utility.yul\":284:297   */\n      iszero\n        /* \"#utility.yul\":277:298   */\n      iszero\n        /* \"#utility.yul\":266:298   */\n      swap1\n      pop\n        /* \"#utility.yul\":214:304   */\n      swap2\n      swap1\n      pop\n      jump\t// out\n        /* \"#utility.yul\":310:419   */\n    tag_33:\n        /* \"#utility.yul\":391:412   */\n      tag_47\n        /* \"#utility.yul\":406:411   */\n      dup2\n        /* \"#utility.yul\":391:412   */\n      tag_32\n      jump\t// in\n    tag_47:\n        /* \"#utility.yul\":386:389   */\n      dup3\n        /* \"#utility.yul\":379:413   */\n      mstore\n        /* \"#utility.yul\":310:419   */\n      pop\n      pop\n      jump\t// out\n        /* \"#utility.yul\":425:529   */\n    tag_34:\n        /* \"#utility.yul\":490:496   */\n      0x00\n        /* \"#utility.yul\":518:522   */\n      0x03\n        /* \"#utility.yul\":508:522   */\n      swap1\n      pop\n        /* \"#utility.yul\":425:529   */\n      swap2\n      swap1\n      pop\n      jump\t// out\n        /* \"#utility.yul\":535:678   */\n    tag_35:\n        /* \"#utility.yul\":632:643   */\n      0x00\n        /* \"#utility.yul\":669:672   */\n      dup2\n        /* \"#utility.yul\":654:672   */\n      swap1\n      pop\n        /* \"#utility.yul\":535:678   */\n      swap3\n      swap2\n      pop\n      pop\n      jump\t// out\n        /* \"#utility.yul\":684:782   */\n    tag_36:\n        /* \"#utility.yul\":749:753   */\n      0x00\n        /* \"#utility.yul\":772:775   */\n      dup2\n        /* \"#utility.yul\":764:775   */\n      swap1\n      pop\n        /* \"#utility.yul\":684:782   */\n      swap2\n      swap1\n      pop\n      jump\t// out\n        /* \"#utility.yul\":788:896   */\n    tag_37:\n        /* \"#utility.yul\":865:889   */\n      tag_52\n        /* \"#utility.yul\":883:888   */\n      dup2\n        /* \"#utility.yul\":865:889   */\n      tag_30\n      jump\t// in\n    tag_52:\n        /* \"#utility.yul\":860:863   */\n      dup3\n        /* \"#utility.yul\":853:890   */\n      mstore\n        /* \"#utility.yul\":788:896   */\n      pop\n      pop\n      jump\t// out\n        /* \"#utility.yul\":902:1081   */\n    tag_38:\n        /* \"#utility.yul\":971:981   */\n      0x00\n        /* \"#utility.yul\":992:1038   */\n      tag_54\n        /* \"#utility.yul\":1034:1037   */\n      dup4\n        /* \"#utility.yul\":1026:1032   */\n      dup4\n        /* \"#utility.yul\":992:1038   */\n      tag_37\n      jump\t// in\n    tag_54:\n        /* \"#utility.yul\":1070:1074   */\n      0x20\n        /* \"#utility.yul\":1065:1068   */\n      dup4\n        /* \"#utility.yul\":1061:1075   */\n      add\n        /* \"#utility.yul\":1047:1075   */\n      swap1\n      pop\n        /* \"#utility.yul\":902:1081   */\n      swap3\n      swap2\n      pop\n      pop\n      jump\t// out\n        /* \"#utility.yul\":1087:1198   */\n    tag_39:\n        /* \"#utility.yul\":1155:1159   */\n      0x00\n        /* \"#utility.yul\":1187:1191   */\n      0x20\n        /* \"#utility.yul\":1182:1185   */\n      dup3\n        /* \"#utility.yul\":1178:1192   */\n      add\n        /* \"#utility.yul\":1170:1192   */\n      swap1\n      pop\n        /* \"#utility.yul\":1087:1198   */\n      swap2\n      swap1\n      pop\n      jump\t// out\n        /* \"#utility.yul\":1236:1930   */\n    tag_40:\n        /* \"#utility.yul\":1372:1424   */\n      tag_57\n        /* \"#utility.yul\":1418:1423   */\n      dup2\n        /* \"#utility.yul\":1372:1424   */\n      tag_34\n      jump\t// in\n    tag_57:\n        /* \"#utility.yul\":1440:1524   */\n      tag_58\n        /* \"#utility.yul\":1517:1523   */\n      dup2\n        /* \"#utility.yul\":1512:1515   */\n      dup5\n        /* \"#utility.yul\":1440:1524   */\n      tag_35\n      jump\t// in\n    tag_58:\n        /* \"#utility.yul\":1433:1524   */\n      swap3\n      pop\n        /* \"#utility.yul\":1548:1602   */\n      tag_59\n        /* \"#utility.yul\":1596:1601   */\n      dup3\n        /* \"#utility.yul\":1548:1602   */\n      tag_36\n      jump\t// in\n    tag_59:\n        /* \"#utility.yul\":1625:1632   */\n      dup1\n        /* \"#utility.yul\":1656:1657   */\n      0x00\n        /* \"#utility.yul\":1641:1923   */\n    tag_60:\n        /* \"#utility.yul\":1666:1672   */\n      dup4\n        /* \"#utility.yul\":1663:1664   */\n      dup2\n        /* \"#utility.yul\":1660:1673   */\n      lt\n        /* \"#utility.yul\":1641:1923   */\n      iszero\n      tag_62\n      jumpi\n        /* \"#utility.yul\":1742:1748   */\n      dup2\n        /* \"#utility.yul\":1736:1749   */\n      mload\n        /* \"#utility.yul\":1769:1832   */\n      tag_63\n        /* \"#utility.yul\":1828:1831   */\n      dup8\n        /* \"#utility.yul\":1813:1826   */\n      dup3\n        /* \"#utility.yul\":1769:1832   */\n      tag_38\n      jump\t// in\n    tag_63:\n        /* \"#utility.yul\":1762:1832   */\n      swap7\n      pop\n        /* \"#utility.yul\":1855:1913   */\n      tag_64\n        /* \"#utility.yul\":1906:1912   */\n      dup4\n        /* \"#utility.yul\":1855:1913   */\n      tag_39\n      jump\t// in\n    tag_64:\n        /* \"#utility.yul\":1845:1913   */\n      swap3\n      pop\n        /* \"#utility.yul\":1701:1923   */\n      pop\n        /* \"#utility.yul\":1688:1689   */\n      0x01\n        /* \"#utility.yul\":1685:1686   */\n      dup2\n        /* \"#utility.yul\":1681:1690   */\n      add\n        /* \"#utility.yul\":1676:1690   */\n      swap1\n      pop\n        /* \"#utility.yul\":1641:1923   */\n      jump(tag_60)\n    tag_62:\n        /* \"#utility.yul\":1645:1659   */\n      pop\n        /* \"#utility.yul\":1348:1930   */\n      pop\n      pop\n      pop\n        /* \"#utility.yul\":1236:1930   */\n      pop\n      pop\n      jump\t// out\n        /* \"#utility.yul\":1936:2459   */\n    tag_10:\n        /* \"#utility.yul\":2125:2129   */\n      0x00\n        /* \"#utility.yul\":2163:2166   */\n      0xa0\n        /* \"#utility.yul\":2152:2161   */\n      dup3\n        /* \"#utility.yul\":2148:2167   */\n      add\n        /* \"#utility.yul\":2140:2167   */\n      swap1\n      pop\n        /* \"#utility.yul\":2177:2248   */\n      tag_66\n        /* \"#utility.yul\":2245:2246   */\n      0x00\n        /* \"#utility.yul\":2234:2243   */\n      dup4\n        /* \"#utility.yul\":2230:2247   */\n      add\n        /* \"#utility.yul\":2221:2227   */\n      dup7\n        /* \"#utility.yul\":2177:2248   */\n      tag_31\n      jump\t// in\n    tag_66:\n        /* \"#utility.yul\":2258:2324   */\n      tag_67\n        /* \"#utility.yul\":2320:2322   */\n      0x20\n        /* \"#utility.yul\":2309:2318   */\n      dup4\n        /* \"#utility.yul\":2305:2323   */\n      add\n        /* \"#utility.yul\":2296:2302   */\n      dup6\n        /* \"#utility.yul\":2258:2324   */\n      tag_33\n      jump\t// in\n    tag_67:\n        /* \"#utility.yul\":2334:2452   */\n      tag_68\n        /* \"#utility.yul\":2448:2450   */\n      0x40\n        /* \"#utility.yul\":2437:2446   */\n      dup4\n        /* \"#utility.yul\":2433:2451   */\n      add\n        /* \"#utility.yul\":2424:2430   */\n      dup5\n        /* \"#utility.yul\":2334:2452   */\n      tag_40\n      jump\t// in\n    tag_68:\n        /* \"#utility.yul\":1936:2459   */\n      swap5\n      swap4\n      pop\n      pop\n      pop\n      pop\n      jump\t// out\n\n    auxdata: 0xa2646970667358221220e210e5cdf327b1a20d93b002fd0f205518268a056965a814118952742a5e839e64736f6c634300081a0033\n}\n",
				"bytecode": {
					"linkReferences": {},
					"object": "6080604052348015600e575f80fd5b506102f38061001c5f395ff3fe608060405234801561000f575f80fd5b506004361061004a575f3560e01c80633dece5111461004e5780636f5903301461006e5780638552dc0814610078578063e61e400814610098575b5f80fd5b6100566100b8565b60405161006593929190610288565b60405180910390f35b6100766100ee565b005b610080610123565b60405161008f93929190610288565b60405180910390f35b6100a0610159565b6040516100af93929190610288565b60405180910390f35b5f806100c261018f565b600292505f91506040518060600160405280600381526020016002815260200160018152509050909192565b5f805f6100f961018f565b6101016100b8565b8093508195508296505050506101156100b8565b909150508092505050505050565b5f8061012d61018f565b600180604051806060016040528060018152602001600281526020016005815250925092509250909192565b5f8061016361018f565b600180604051806060016040528060018152602001600281526020016005815250925092509250909192565b6040518060600160405280600390602082028036833780820191505090505090565b5f819050919050565b6101c3816101b1565b82525050565b5f8115159050919050565b6101dd816101c9565b82525050565b5f60039050919050565b5f81905092915050565b5f819050919050565b610209816101b1565b82525050565b5f61021a8383610200565b60208301905092915050565b5f602082019050919050565b61023b816101e3565b61024581846101ed565b9250610250826101f7565b805f5b83811015610280578151610267878261020f565b965061027283610226565b925050600181019050610253565b505050505050565b5f60a08201905061029b5f8301866101ba565b6102a860208301856101d4565b6102b56040830184610232565b94935050505056fea2646970667358221220e210e5cdf327b1a20d93b002fd0f205518268a056965a814118952742a5e839e64736f6c634300081a0033",
					"opcodes": "PUSH1 0x80 PUSH1 0x40 MSTORE CALLVALUE DUP1 ISZERO PUSH1 0xE JUMPI PUSH0 DUP1 REVERT JUMPDEST POP PUSH2 0x2F3 DUP1 PUSH2 0x1C PUSH0 CODECOPY PUSH0 RETURN INVALID PUSH1 0x80 PUSH1 0x40 MSTORE CALLVALUE DUP1 ISZERO PUSH2 0xF JUMPI PUSH0 DUP1 REVERT JUMPDEST POP PUSH1 0x4 CALLDATASIZE LT PUSH2 0x4A JUMPI PUSH0 CALLDATALOAD PUSH1 0xE0 SHR DUP1 PUSH4 0x3DECE511 EQ PUSH2 0x4E JUMPI DUP1 PUSH4 0x6F590330 EQ PUSH2 0x6E JUMPI DUP1 PUSH4 0x8552DC08 EQ PUSH2 0x78 JUMPI DUP1 PUSH4 0xE61E4008 EQ PUSH2 0x98 JUMPI JUMPDEST PUSH0 DUP1 REVERT JUMPDEST PUSH2 0x56 PUSH2 0xB8 JUMP JUMPDEST PUSH1 0x40 MLOAD PUSH2 0x65 SWAP4 SWAP3 SWAP2 SWAP1 PUSH2 0x288 JUMP JUMPDEST PUSH1 0x40 MLOAD DUP1 SWAP2 SUB SWAP1 RETURN JUMPDEST PUSH2 0x76 PUSH2 0xEE JUMP JUMPDEST STOP JUMPDEST PUSH2 0x80 PUSH2 0x123 JUMP JUMPDEST PUSH1 0x40 MLOAD PUSH2 0x8F SWAP4 SWAP3 SWAP2 SWAP1 PUSH2 0x288 JUMP JUMPDEST PUSH1 0x40 MLOAD DUP1 SWAP2 SUB SWAP1 RETURN JUMPDEST PUSH2 0xA0 PUSH2 0x159 JUMP JUMPDEST PUSH1 0x40 MLOAD PUSH2 0xAF SWAP4 SWAP3 SWAP2 SWAP1 PUSH2 0x288 JUMP JUMPDEST PUSH1 0x40 MLOAD DUP1 SWAP2 SUB SWAP1 RETURN JUMPDEST PUSH0 DUP1 PUSH2 0xC2 PUSH2 0x18F JUMP JUMPDEST PUSH1 0x2 SWAP3 POP PUSH0 SWAP2 POP PUSH1 0x40 MLOAD DUP1 PUSH1 0x60 ADD PUSH1 0x40 MSTORE DUP1 PUSH1 0x3 DUP2 MSTORE PUSH1 0x20 ADD PUSH1 0x2 DUP2 MSTORE PUSH1 0x20 ADD PUSH1 0x1 DUP2 MSTORE POP SWAP1 POP SWAP1 SWAP2 SWAP3 JUMP JUMPDEST PUSH0 DUP1 PUSH0 PUSH2 0xF9 PUSH2 0x18F JUMP JUMPDEST PUSH2 0x101 PUSH2 0xB8 JUMP JUMPDEST DUP1 SWAP4 POP DUP2 SWAP6 POP DUP3 SWAP7 POP POP POP POP PUSH2 0x115 PUSH2 0xB8 JUMP JUMPDEST SWAP1 SWAP2 POP POP DUP1 SWAP3 POP POP POP POP POP POP JUMP JUMPDEST PUSH0 DUP1 PUSH2 0x12D PUSH2 0x18F JUMP JUMPDEST PUSH1 0x1 DUP1 PUSH1 0x40 MLOAD DUP1 PUSH1 0x60 ADD PUSH1 0x40 MSTORE DUP1 PUSH1 0x1 DUP2 MSTORE PUSH1 0x20 ADD PUSH1 0x2 DUP2 MSTORE PUSH1 0x20 ADD PUSH1 0x5 DUP2 MSTORE POP SWAP3 POP SWAP3 POP SWAP3 POP SWAP1 SWAP2 SWAP3 JUMP JUMPDEST PUSH0 DUP1 PUSH2 0x163 PUSH2 0x18F JUMP JUMPDEST PUSH1 0x1 DUP1 PUSH1 0x40 MLOAD DUP1 PUSH1 0x60 ADD PUSH1 0x40 MSTORE DUP1 PUSH1 0x1 DUP2 MSTORE PUSH1 0x20 ADD PUSH1 0x2 DUP2 MSTORE PUSH1 0x20 ADD PUSH1 0x5 DUP2 MSTORE POP SWAP3 POP SWAP3 POP SWAP3 POP SWAP1 SWAP2 SWAP3 JUMP JUMPDEST PUSH1 0x40 MLOAD DUP1 PUSH1 0x60 ADD PUSH1 0x40 MSTORE DUP1 PUSH1 0x3 SWAP1 PUSH1 0x20 DUP3 MUL DUP1 CALLDATASIZE DUP4 CALLDATACOPY DUP1 DUP3 ADD SWAP2 POP POP SWAP1 POP POP SWAP1 JUMP JUMPDEST PUSH0 DUP2 SWAP1 POP SWAP2 SWAP1 POP JUMP JUMPDEST PUSH2 0x1C3 DUP2 PUSH2 0x1B1 JUMP JUMPDEST DUP3 MSTORE POP POP JUMP JUMPDEST PUSH0 DUP2 ISZERO ISZERO SWAP1 POP SWAP2 SWAP1 POP JUMP JUMPDEST PUSH2 0x1DD DUP2 PUSH2 0x1C9 JUMP JUMPDEST DUP3 MSTORE POP POP JUMP JUMPDEST PUSH0 PUSH1 0x3 SWAP1 POP SWAP2 SWAP1 POP JUMP JUMPDEST PUSH0 DUP2 SWAP1 POP SWAP3 SWAP2 POP POP JUMP JUMPDEST PUSH0 DUP2 SWAP1 POP SWAP2 SWAP1 POP JUMP JUMPDEST PUSH2 0x209 DUP2 PUSH2 0x1B1 JUMP JUMPDEST DUP3 MSTORE POP POP JUMP JUMPDEST PUSH0 PUSH2 0x21A DUP4 DUP4 PUSH2 0x200 JUMP JUMPDEST PUSH1 0x20 DUP4 ADD SWAP1 POP SWAP3 SWAP2 POP POP JUMP JUMPDEST PUSH0 PUSH1 0x20 DUP3 ADD SWAP1 POP SWAP2 SWAP1 POP JUMP JUMPDEST PUSH2 0x23B DUP2 PUSH2 0x1E3 JUMP JUMPDEST PUSH2 0x245 DUP2 DUP5 PUSH2 0x1ED JUMP JUMPDEST SWAP3 POP PUSH2 0x250 DUP3 PUSH2 0x1F7 JUMP JUMPDEST DUP1 PUSH0 JUMPDEST DUP4 DUP2 LT ISZERO PUSH2 0x280 JUMPI DUP2 MLOAD PUSH2 0x267 DUP8 DUP3 PUSH2 0x20F JUMP JUMPDEST SWAP7 POP PUSH2 0x272 DUP4 PUSH2 0x226 JUMP JUMPDEST SWAP3 POP POP PUSH1 0x1 DUP2 ADD SWAP1 POP PUSH2 0x253 JUMP JUMPDEST POP POP POP POP POP POP JUMP JUMPDEST PUSH0 PUSH1 0xA0 DUP3 ADD SWAP1 POP PUSH2 0x29B PUSH0 DUP4 ADD DUP7 PUSH2 0x1BA JUMP JUMPDEST PUSH2 0x2A8 PUSH1 0x20 DUP4 ADD DUP6 PUSH2 0x1D4 JUMP JUMPDEST PUSH2 0x2B5 PUSH1 0x40 DUP4 ADD DUP5 PUSH2 0x232 JUMP JUMPDEST SWAP5 SWAP4 POP POP POP POP JUMP INVALID LOG2 PUSH5 0x6970667358 0x22 SLT KECCAK256 0xE2 LT 0xE5 0xCD RETURN 0x27 0xB1 LOG2 0xD SWAP4 0xB0 MUL REVERT 0xF KECCAK256 SSTORE XOR 0x26 DUP11 SDIV PUSH10 0x65A814118952742A5E83 SWAP15 PUSH5 0x736F6C6343 STOP ADDMOD BYTE STOP CALLER "
				},
				"gasEstimates": {
					"creation": {
						"codeDepositCost": "151000",
						"executionCost": "194",
						"totalCost": "151194"
					},
					"external": {
						"readReturn()": "infinite",
						"returnMultiple()": "infinite",
						"returnNamed()": "infinite",
						"returnNamed2()": "infinite"
					}
				},
				"methodIdentifiers": {
					"readReturn()": "6f590330",
					"returnMultiple()": "e61e4008",
					"returnNamed()": "3dece511",
					"returnNamed2()": "8552dc08"
				}
			},
			"storageLayout": {
				"storage": [],
				"types": null
			},
			"userdoc": {
				"kind": "user",
				"methods": {},
				"version": 1
			}
		}
	}
}